{
  "contractName": "ERC721Enumerable",
  "abi": [
    {
      "anonymous": false,
      "inputs": [
        {
          "indexed": true,
          "internalType": "address",
          "name": "from",
          "type": "address"
        },
        {
          "indexed": true,
          "internalType": "address",
          "name": "to",
          "type": "address"
        },
        {
          "indexed": true,
          "internalType": "uint256",
          "name": "tokenId",
          "type": "uint256"
        }
      ],
      "name": "Transfer",
      "type": "event"
    },
    {
      "inputs": [
        {
          "internalType": "address",
          "name": "_owner",
          "type": "address"
        }
      ],
      "name": "balanceOf",
      "outputs": [
        {
          "internalType": "uint256",
          "name": "",
          "type": "uint256"
        }
      ],
      "stateMutability": "view",
      "type": "function"
    },
    {
      "inputs": [
        {
          "internalType": "uint256",
          "name": "_tokenId",
          "type": "uint256"
        }
      ],
      "name": "ownerOf",
      "outputs": [
        {
          "internalType": "address",
          "name": "",
          "type": "address"
        }
      ],
      "stateMutability": "view",
      "type": "function"
    },
    {
      "inputs": [],
      "name": "totalSupply",
      "outputs": [
        {
          "internalType": "uint256",
          "name": "",
          "type": "uint256"
        }
      ],
      "stateMutability": "view",
      "type": "function"
    }
  ],
  "bytecode": "0x608060405234801561001057600080fd5b5061041b806100206000396000f3fe608060405234801561001057600080fd5b50600436106100415760003560e01c806318160ddd146100465780636352211e1461006457806370a0823114610094575b600080fd5b61004e6100c4565b60405161005b919061034f565b60405180910390f35b61007e6004803603810190610079919061028d565b6100d1565b60405161008b9190610314565b60405180910390f35b6100ae60048036038101906100a99190610264565b610182565b6040516100bb919061034f565b60405180910390f35b6000600280549050905090565b60008060008084815260200190815260200160002060009054906101000a900473ffffffffffffffffffffffffffffffffffffffff169050600073ffffffffffffffffffffffffffffffffffffffff168173ffffffffffffffffffffffffffffffffffffffff161415610179576040517f08c379a00000000000000000000000000000000000000000000000000000000081526004016101709061032f565b60405180910390fd5b80915050919050565b60008073ffffffffffffffffffffffffffffffffffffffff168273ffffffffffffffffffffffffffffffffffffffff1614156101f3576040517f08c379a00000000000000000000000000000000000000000000000000000000081526004016101ea9061032f565b60405180910390fd5b600160008373ffffffffffffffffffffffffffffffffffffffff1673ffffffffffffffffffffffffffffffffffffffff168152602001908152602001600020549050919050565b600081359050610249816103b7565b92915050565b60008135905061025e816103ce565b92915050565b60006020828403121561027657600080fd5b60006102848482850161023a565b91505092915050565b60006020828403121561029f57600080fd5b60006102ad8482850161024f565b91505092915050565b6102bf8161037b565b82525050565b60006102d260128361036a565b91507f4f776e6572206973206e6f7420657869737400000000000000000000000000006000830152602082019050919050565b61030e816103ad565b82525050565b600060208201905061032960008301846102b6565b92915050565b60006020820190508181036000830152610348816102c5565b9050919050565b60006020820190506103646000830184610305565b92915050565b600082825260208201905092915050565b60006103868261038d565b9050919050565b600073ffffffffffffffffffffffffffffffffffffffff82169050919050565b6000819050919050565b6103c08161037b565b81146103cb57600080fd5b50565b6103d7816103ad565b81146103e257600080fd5b5056fea2646970667358221220af7cc548a92ed2f1fab8de7e3bb60b48537d67118cf4b8cb9a8bea44fc898a5464736f6c63430008000033",
  "immutableReferences": {},
  "source": "// SPDX-License-Identifier: MIT\r\npragma solidity ^0.8.0;\r\nimport './ERC721.sol';\r\n\r\n\r\ncontract ERC721Enumerable is ERC721 {\r\n    uint256[] private _allTokens;\r\n\r\n    //mapping form tokenId to position in array _allTokens\r\n    mapping(uint256 => uint256) private _tokenIdToIndex;\r\n\r\n    //mapping of owner to list of all owner's tokens\r\n    mapping(address => uint256[]) private _ownerToTokens;\r\n\r\n    //mapping from the tokenId of the owner token list\r\n    mapping(uint256 => address) private _tokenIdToOwner;\r\n\r\n     /// @notice Count NFTs tracked by this contract\r\n    /// @return A count of valid NFTs tracked by this contract, where each one of\r\n    ///  them has an assigned and queryable owner not equal to the zero address\r\n    function totalSupply() public view returns (uint256){\r\n        return _allTokens.length;\r\n    }\r\n\r\n    //override _mint funtction from ERC721\r\n    function _mint(address to,uint256 tokenId) internal override(ERC721) {\r\n        super._mint(to, tokenId);\r\n        \r\n        //thm tokens ti owner\r\n        _addFuntionToTotalSupply(tokenId);\r\n        \r\n        \r\n    }\r\n\r\n    function _addFuntionToTotalSupply (uint256 tokenId) private {\r\n        _allTokens.push(tokenId);\r\n    }\r\n}\r\n",
  "sourcePath": "E:\\Desktop\\Do_an_cuoi_khoa\\nft-marketplace-local\\src\\contracts\\ERC721Enumerable.sol",
  "compiler": {
    "name": "solc",
    "version": "0.8.0+commit.c7dfd78e.Emscripten.clang"
  },
  "schemaVersion": "3.4.7",
  "updatedAt": "2022-06-20T06:46:09.259Z",
  "devdoc": {
    "kind": "dev",
    "methods": {
      "balanceOf(address)": {
        "details": "NFTs assigned to the zero address are considered invalid, and this  function throws for queries about the zero address.",
        "params": {
          "_owner": "An address for whom to query the balance"
        },
        "returns": {
          "_0": "The number of NFTs owned by `_owner`, possibly zero"
        }
      },
      "ownerOf(uint256)": {
        "details": "NFTs assigned to zero address are considered invalid, and queries  about them do throw.",
        "params": {
          "_tokenId": "The identifier for an NFT"
        },
        "returns": {
          "_0": "The address of the owner of the NFT"
        }
      },
      "totalSupply()": {
        "returns": {
          "_0": "A count of valid NFTs tracked by this contract, where each one of  them has an assigned and queryable owner not equal to the zero address"
        }
      }
    },
    "version": 1
  },
  "userdoc": {
    "kind": "user",
    "methods": {
      "balanceOf(address)": {
        "notice": "Count all NFTs assigned to an owner"
      },
      "ownerOf(uint256)": {
        "notice": "Find the owner of an NFT"
      },
      "totalSupply()": {
        "notice": "Count NFTs tracked by this contract"
      }
    },
    "version": 1
  }
}