{
  "contractName": "KryptoBirdz",
  "abi": [
    {
      "inputs": [],
      "stateMutability": "nonpayable",
      "type": "constructor"
    },
    {
      "anonymous": false,
      "inputs": [
        {
          "indexed": true,
          "internalType": "address",
          "name": "_owner",
          "type": "address"
        },
        {
          "indexed": true,
          "internalType": "address",
          "name": "_approved",
          "type": "address"
        },
        {
          "indexed": true,
          "internalType": "uint256",
          "name": "_tokenId",
          "type": "uint256"
        }
      ],
      "name": "Approval",
      "type": "event"
    },
    {
      "anonymous": false,
      "inputs": [
        {
          "indexed": true,
          "internalType": "address",
          "name": "_from",
          "type": "address"
        },
        {
          "indexed": true,
          "internalType": "address",
          "name": "_to",
          "type": "address"
        },
        {
          "indexed": true,
          "internalType": "uint256",
          "name": "_tokenId",
          "type": "uint256"
        }
      ],
      "name": "Transfer",
      "type": "event"
    },
    {
      "inputs": [
        {
          "internalType": "string",
          "name": "",
          "type": "string"
        }
      ],
      "name": "KryptoBirdzExist",
      "outputs": [
        {
          "internalType": "bool",
          "name": "",
          "type": "bool"
        }
      ],
      "stateMutability": "view",
      "type": "function",
      "constant": true
    },
    {
      "inputs": [
        {
          "internalType": "address",
          "name": "_to",
          "type": "address"
        },
        {
          "internalType": "uint256",
          "name": "tokenId",
          "type": "uint256"
        }
      ],
      "name": "approve",
      "outputs": [],
      "stateMutability": "nonpayable",
      "type": "function"
    },
    {
      "inputs": [
        {
          "internalType": "address",
          "name": "_owner",
          "type": "address"
        }
      ],
      "name": "balanceOf",
      "outputs": [
        {
          "internalType": "uint256",
          "name": "",
          "type": "uint256"
        }
      ],
      "stateMutability": "view",
      "type": "function",
      "constant": true
    },
    {
      "inputs": [
        {
          "internalType": "uint256",
          "name": "",
          "type": "uint256"
        }
      ],
      "name": "kryptoBirdz",
      "outputs": [
        {
          "internalType": "string",
          "name": "",
          "type": "string"
        }
      ],
      "stateMutability": "view",
      "type": "function",
      "constant": true
    },
    {
      "inputs": [],
      "name": "name",
      "outputs": [
        {
          "internalType": "string",
          "name": "",
          "type": "string"
        }
      ],
      "stateMutability": "view",
      "type": "function",
      "constant": true
    },
    {
      "inputs": [
        {
          "internalType": "uint256",
          "name": "_tokenId",
          "type": "uint256"
        }
      ],
      "name": "ownerOf",
      "outputs": [
        {
          "internalType": "address",
          "name": "",
          "type": "address"
        }
      ],
      "stateMutability": "view",
      "type": "function",
      "constant": true
    },
    {
      "inputs": [
        {
          "internalType": "bytes4",
          "name": "interfaceID",
          "type": "bytes4"
        }
      ],
      "name": "supportsInterface",
      "outputs": [
        {
          "internalType": "bool",
          "name": "",
          "type": "bool"
        }
      ],
      "stateMutability": "view",
      "type": "function",
      "constant": true
    },
    {
      "inputs": [],
      "name": "symbol",
      "outputs": [
        {
          "internalType": "string",
          "name": "",
          "type": "string"
        }
      ],
      "stateMutability": "view",
      "type": "function",
      "constant": true
    },
    {
      "inputs": [
        {
          "internalType": "uint256",
          "name": "index",
          "type": "uint256"
        }
      ],
      "name": "tokenByIndex",
      "outputs": [
        {
          "internalType": "uint256",
          "name": "",
          "type": "uint256"
        }
      ],
      "stateMutability": "view",
      "type": "function",
      "constant": true
    },
    {
      "inputs": [
        {
          "internalType": "address",
          "name": "owner",
          "type": "address"
        },
        {
          "internalType": "uint256",
          "name": "index",
          "type": "uint256"
        }
      ],
      "name": "tokenOfOwnerByIndex",
      "outputs": [
        {
          "internalType": "uint256",
          "name": "",
          "type": "uint256"
        }
      ],
      "stateMutability": "view",
      "type": "function",
      "constant": true
    },
    {
      "inputs": [],
      "name": "totalSupply",
      "outputs": [
        {
          "internalType": "uint256",
          "name": "",
          "type": "uint256"
        }
      ],
      "stateMutability": "view",
      "type": "function",
      "constant": true
    },
    {
      "inputs": [
        {
          "internalType": "address",
          "name": "_from",
          "type": "address"
        },
        {
          "internalType": "address",
          "name": "_to",
          "type": "address"
        },
        {
          "internalType": "uint256",
          "name": "_tokenId",
          "type": "uint256"
        }
      ],
      "name": "transferFrom",
      "outputs": [],
      "stateMutability": "nonpayable",
      "type": "function"
    },
    {
      "inputs": [
        {
          "internalType": "string",
          "name": "_kryptoBirdz",
          "type": "string"
        }
      ],
      "name": "mint",
      "outputs": [],
      "stateMutability": "nonpayable",
      "type": "function"
    }
  ],
  "bytecode": "0x60806040523480156200001157600080fd5b506040518060400160405280600b81526020017f4b727970746f426972647a0000000000000000000000000000000000000000008152506040518060400160405280600681526020017f4b424952445a00000000000000000000000000000000000000000000000000008152508181620000b17f01ffc9a7a5cef8baa21ed3c5c0d7e23accb804b619e9333b597f47a0d84076e26200022a60201b60201c565b620001047f13b182f4c0e5b2efbac0efe6cf6d756c8b89f4b79c5707a043ed9ea740574ee97f7feaf19471f34a12a7eaf32d5f3090aa2260ea8624dc8a138e74e0bf0f623076186200022a60201b60201c565b81600190805190602001906200011c92919062000302565b5080600290805190602001906200013592919062000302565b505050620001ad7f22c82707ba960a14c7592ffb6b8cfaa073fed0048a84cc7fa41f6b5bd8e7f2e47f3a6eb71757dfc6e784c1459d26270140c2c147d95ca985c80026fc5301c3eca17f8a7e378434598edc36d108689a030cbc9d7d465de4f74c71bae1028eed6a881b18186200022a60201b60201c565b620002227fc53637662700e6c65104059db8bba34439e0c32483ab7c34e3ccae52c73954957f8230223f691b981717299fae9549350a0d894555723531f02108b1f522c1a7977f6da5e1284143cdd2d15038a59bde3be031250f00291d64494c12d967b3a4e0c318186200022a60201b60201c565b50506200048c565b63ffffffff60e01b817bffffffffffffffffffffffffffffffffffffffffffffffffffffffff1916141562000296576040517f08c379a00000000000000000000000000000000000000000000000000000000081526004016200028d90620003f4565b60405180910390fd5b6001600080837bffffffffffffffffffffffffffffffffffffffffffffffffffffffff19167bffffffffffffffffffffffffffffffffffffffffffffffffffffffff1916815260200190815260200160002060006101000a81548160ff02191690831515021790555050565b828054620003109062000427565b90600052602060002090601f01602090048101928262000334576000855562000380565b82601f106200034f57805160ff191683800117855562000380565b8280016001018555821562000380579182015b828111156200037f57825182559160200191906001019062000362565b5b5090506200038f919062000393565b5090565b5b80821115620003ae57600081600090555060010162000394565b5090565b6000620003c160198362000416565b91507f496e76616c696420696e746572666163652072657175657374000000000000006000830152602082019050919050565b600060208201905081810360008301526200040f81620003b2565b9050919050565b600082825260208201905092915050565b600060028204905060018216806200044057607f821691505b602082108114156200045757620004566200045d565b5b50919050565b7f4e487b7100000000000000000000000000000000000000000000000000000000600052602260045260246000fd5b611b1d806200049c6000396000f3fe608060405234801561001057600080fd5b50600436106100cf5760003560e01c80634f6ccce71161008c578063742977eb11610066578063742977eb1461023857806393ab6e561461026857806395d89b4114610298578063d85d3d27146102b6576100cf565b80634f6ccce7146101a85780636352211e146101d857806370a0823114610208576100cf565b806301ffc9a7146100d457806306fdde0314610104578063095ea7b31461012257806318160ddd1461013e57806323b872dd1461015c5780632f745c5914610178575b600080fd5b6100ee60048036038101906100e99190611241565b6102d2565b6040516100fb9190611675565b60405180910390f35b61010c610339565b6040516101199190611690565b60405180910390f35b61013c60048036038101906101379190611205565b6103cb565b005b610146610567565b60405161015391906117d2565b60405180910390f35b610176600480360381019061017191906111b6565b610574565b005b610192600480360381019061018d9190611205565b610584565b60405161019f91906117d2565b60405180910390f35b6101c260048036038101906101bd91906112ab565b61065a565b6040516101cf91906117d2565b60405180910390f35b6101f260048036038101906101ed91906112ab565b6106c0565b6040516101ff919061165a565b60405180910390f35b610222600480360381019061021d919061118d565b610772565b60405161022f91906117d2565b60405180910390f35b610252600480360381019061024d919061126a565b61082a565b60405161025f9190611675565b60405180910390f35b610282600480360381019061027d91906112ab565b610860565b60405161028f9190611690565b60405180910390f35b6102a061090c565b6040516102ad9190611690565b60405180910390f35b6102d060048036038101906102cb919061126a565b61099e565b005b6000806000837bffffffffffffffffffffffffffffffffffffffffffffffffffffffff19167bffffffffffffffffffffffffffffffffffffffffffffffffffffffff1916815260200190815260200160002060009054906101000a900460ff169050919050565b60606001805461034890611989565b80601f016020809104026020016040519081016040528092919081815260200182805461037490611989565b80156103c15780601f10610396576101008083540402835291602001916103c1565b820191906000526020600020905b8154815290600101906020018083116103a457829003601f168201915b5050505050905090565b60006103d6826106c0565b90508073ffffffffffffffffffffffffffffffffffffffff168373ffffffffffffffffffffffffffffffffffffffff161415610447576040517f08c379a000000000000000000000000000000000000000000000000000000000815260040161043e906116b2565b60405180910390fd5b8073ffffffffffffffffffffffffffffffffffffffff163373ffffffffffffffffffffffffffffffffffffffff16146104b5576040517f08c379a00000000000000000000000000000000000000000000000000000000081526004016104ac906116d2565b60405180910390fd5b826005600084815260200190815260200160002060006101000a81548173ffffffffffffffffffffffffffffffffffffffff021916908373ffffffffffffffffffffffffffffffffffffffff160217905550818373ffffffffffffffffffffffffffffffffffffffff168273ffffffffffffffffffffffffffffffffffffffff167f8c5be1e5ebec7d5bd14f71427d1e84f3dd0314c0f7b2291e5b200ac8c7c3b92560405160405180910390a4505050565b6000600680549050905090565b61057f838383610aa1565b505050565b600061058f83610772565b82106105d0576040517f08c379a00000000000000000000000000000000000000000000000000000000081526004016105c790611732565b60405180910390fd5b600860008473ffffffffffffffffffffffffffffffffffffffff1673ffffffffffffffffffffffffffffffffffffffff1681526020019081526020016000208281548110610647577f4e487b7100000000000000000000000000000000000000000000000000000000600052603260045260246000fd5b9060005260206000200154905092915050565b6000610664610567565b82106106a5576040517f08c379a000000000000000000000000000000000000000000000000000000000815260040161069c90611732565b60405180910390fd5b60076000838152602001908152602001600020549050919050565b6000806003600084815260200190815260200160002060009054906101000a900473ffffffffffffffffffffffffffffffffffffffff169050600073ffffffffffffffffffffffffffffffffffffffff168173ffffffffffffffffffffffffffffffffffffffff161415610769576040517f08c379a0000000000000000000000000000000000000000000000000000000008152600401610760906117b2565b60405180910390fd5b80915050919050565b60008073ffffffffffffffffffffffffffffffffffffffff168273ffffffffffffffffffffffffffffffffffffffff1614156107e3576040517f08c379a00000000000000000000000000000000000000000000000000000000081526004016107da906117b2565b60405180910390fd5b600460008373ffffffffffffffffffffffffffffffffffffffff1673ffffffffffffffffffffffffffffffffffffffff168152602001908152602001600020549050919050565b600b818051602081018201805184825260208301602085012081835280955050505050506000915054906101000a900460ff1681565b600a818154811061087057600080fd5b90600052602060002001600091509050805461088b90611989565b80601f01602080910402602001604051908101604052809291908181526020018280546108b790611989565b80156109045780601f106108d957610100808354040283529160200191610904565b820191906000526020600020905b8154815290600101906020018083116108e757829003601f168201915b505050505081565b60606002805461091b90611989565b80601f016020809104026020016040519081016040528092919081815260200182805461094790611989565b80156109945780601f1061096957610100808354040283529160200191610994565b820191906000526020600020905b81548152906001019060200180831161097757829003601f168201915b5050505050905090565b600b816040516109ae9190611643565b908152602001604051809103902060009054906101000a900460ff1615610a0a576040517f08c379a0000000000000000000000000000000000000000000000000000000008152600401610a0190611752565b60405180910390fd5b600a81908060018154018082558091505060019003906000526020600020016000909190919091509080519060200190610a45929190611043565b5060006001600a80549050610a5a9190611875565b9050610a663382610ce3565b6001600b83604051610a789190611643565b908152602001604051809103902060006101000a81548160ff0219169083151502179055505050565b600073ffffffffffffffffffffffffffffffffffffffff168273ffffffffffffffffffffffffffffffffffffffff161415610b11576040517f08c379a0000000000000000000000000000000000000000000000000000000008152600401610b08906116f2565b60405180910390fd5b8273ffffffffffffffffffffffffffffffffffffffff16610b31826106c0565b73ffffffffffffffffffffffffffffffffffffffff1614610b87576040517f08c379a0000000000000000000000000000000000000000000000000000000008152600401610b7e90611772565b60405180910390fd5b600460008473ffffffffffffffffffffffffffffffffffffffff1673ffffffffffffffffffffffffffffffffffffffff1681526020019081526020016000206000815480929190610bd79061195f565b9190505550600460008373ffffffffffffffffffffffffffffffffffffffff1673ffffffffffffffffffffffffffffffffffffffff1681526020019081526020016000206000815480929190610c2c906119bb565b9190505550816003600083815260200190815260200160002060006101000a81548173ffffffffffffffffffffffffffffffffffffffff021916908373ffffffffffffffffffffffffffffffffffffffff160217905550808273ffffffffffffffffffffffffffffffffffffffff168473ffffffffffffffffffffffffffffffffffffffff167fddf252ad1be2c89b69c2b068fc378daa952ba7f163c4a11628f55a4df523b3ef60405160405180910390a4505050565b610ced8282610d04565b610cf681610ec4565b610d008282610f0d565b5050565b600073ffffffffffffffffffffffffffffffffffffffff168273ffffffffffffffffffffffffffffffffffffffff161415610d74576040517f08c379a0000000000000000000000000000000000000000000000000000000008152600401610d6b90611792565b60405180910390fd5b610d7d81610fd1565b15610dbd576040517f08c379a0000000000000000000000000000000000000000000000000000000008152600401610db490611712565b60405180910390fd5b816003600083815260200190815260200160002060006101000a81548173ffffffffffffffffffffffffffffffffffffffff021916908373ffffffffffffffffffffffffffffffffffffffff160217905550600460008373ffffffffffffffffffffffffffffffffffffffff1673ffffffffffffffffffffffffffffffffffffffff1681526020019081526020016000206000815480929190610e5f906119bb565b9190505550808273ffffffffffffffffffffffffffffffffffffffff16600073ffffffffffffffffffffffffffffffffffffffff167fddf252ad1be2c89b69c2b068fc378daa952ba7f163c4a11628f55a4df523b3ef60405160405180910390a45050565b6006805490506007600083815260200190815260200160002081905550600681908060018154018082558091505060019003906000526020600020016000909190919091505550565b600860008373ffffffffffffffffffffffffffffffffffffffff1673ffffffffffffffffffffffffffffffffffffffff168152602001908152602001600020805490506009600083815260200190815260200160002081905550600860008373ffffffffffffffffffffffffffffffffffffffff1673ffffffffffffffffffffffffffffffffffffffff1681526020019081526020016000208190806001815401808255809150506001900390600052602060002001600090919091909150555050565b6000806003600084815260200190815260200160002060009054906101000a900473ffffffffffffffffffffffffffffffffffffffff169050600073ffffffffffffffffffffffffffffffffffffffff168173ffffffffffffffffffffffffffffffffffffffff161415915050919050565b82805461104f90611989565b90600052602060002090601f01602090048101928261107157600085556110b8565b82601f1061108a57805160ff19168380011785556110b8565b828001600101855582156110b8579182015b828111156110b757825182559160200191906001019061109c565b5b5090506110c591906110c9565b5090565b5b808211156110e25760008160009055506001016110ca565b5090565b60006110f96110f48461181e565b6117ed565b90508281526020810184848401111561111157600080fd5b61111c84828561191d565b509392505050565b60008135905061113381611aa2565b92915050565b60008135905061114881611ab9565b92915050565b600082601f83011261115f57600080fd5b813561116f8482602086016110e6565b91505092915050565b60008135905061118781611ad0565b92915050565b60006020828403121561119f57600080fd5b60006111ad84828501611124565b91505092915050565b6000806000606084860312156111cb57600080fd5b60006111d986828701611124565b93505060206111ea86828701611124565b92505060406111fb86828701611178565b9150509250925092565b6000806040838503121561121857600080fd5b600061122685828601611124565b925050602061123785828601611178565b9150509250929050565b60006020828403121561125357600080fd5b600061126184828501611139565b91505092915050565b60006020828403121561127c57600080fd5b600082013567ffffffffffffffff81111561129657600080fd5b6112a28482850161114e565b91505092915050565b6000602082840312156112bd57600080fd5b60006112cb84828501611178565b91505092915050565b6112dd816118a9565b82525050565b6112ec816118bb565b82525050565b60006112fd8261184e565b6113078185611859565b935061131781856020860161192c565b61132081611a91565b840191505092915050565b60006113368261184e565b611340818561186a565b935061135081856020860161192c565b80840191505092915050565b6000611369602183611859565b91507f4572726f72202d20617070726f76616c20746f2063757272656e74206f776e6560008301527f72000000000000000000000000000000000000000000000000000000000000006020830152604082019050919050565b60006113cf601f83611859565b91507f437572656e742063616c6c6572206973206e6f7420746865206f776e657220006000830152602082019050919050565b600061140f602b83611859565b91507f4572726f72203d20455243373231205472616e7366657220746f20746865207a60008301527f65726f20616464726573730000000000000000000000000000000000000000006020830152604082019050919050565b6000611475601b83611859565b91507f5468697320746f6b656e20697320616c726561647920657869737400000000006000830152602082019050919050565b60006114b5600d83611859565b91507f6f7574206f6620626f756e6473000000000000000000000000000000000000006000830152602082019050919050565b60006114f5601983611859565b91507f4b727970746f426972647a20616c7265616479206578697374000000000000006000830152602082019050919050565b6000611535603083611859565b91507f547279696e6720746f2074726173666572206120746f6b656e2074686520736160008301527f6d6520746f6b656e2061646472657373000000000000000000000000000000006020830152604082019050919050565b600061159b602383611859565b91507f4552433732313a206d696e74696e6720746f20746865206e756c6c206164647260008301527f65737300000000000000000000000000000000000000000000000000000000006020830152604082019050919050565b6000611601601283611859565b91507f4f776e6572206973206e6f7420657869737400000000000000000000000000006000830152602082019050919050565b61163d81611913565b82525050565b600061164f828461132b565b915081905092915050565b600060208201905061166f60008301846112d4565b92915050565b600060208201905061168a60008301846112e3565b92915050565b600060208201905081810360008301526116aa81846112f2565b905092915050565b600060208201905081810360008301526116cb8161135c565b9050919050565b600060208201905081810360008301526116eb816113c2565b9050919050565b6000602082019050818103600083015261170b81611402565b9050919050565b6000602082019050818103600083015261172b81611468565b9050919050565b6000602082019050818103600083015261174b816114a8565b9050919050565b6000602082019050818103600083015261176b816114e8565b9050919050565b6000602082019050818103600083015261178b81611528565b9050919050565b600060208201905081810360008301526117ab8161158e565b9050919050565b600060208201905081810360008301526117cb816115f4565b9050919050565b60006020820190506117e76000830184611634565b92915050565b6000604051905081810181811067ffffffffffffffff8211171561181457611813611a62565b5b8060405250919050565b600067ffffffffffffffff82111561183957611838611a62565b5b601f19601f8301169050602081019050919050565b600081519050919050565b600082825260208201905092915050565b600081905092915050565b600061188082611913565b915061188b83611913565b92508282101561189e5761189d611a04565b5b828203905092915050565b60006118b4826118f3565b9050919050565b60008115159050919050565b60007fffffffff0000000000000000000000000000000000000000000000000000000082169050919050565b600073ffffffffffffffffffffffffffffffffffffffff82169050919050565b6000819050919050565b82818337600083830152505050565b60005b8381101561194a57808201518184015260208101905061192f565b83811115611959576000848401525b50505050565b600061196a82611913565b9150600082141561197e5761197d611a04565b5b600182039050919050565b600060028204905060018216806119a157607f821691505b602082108114156119b5576119b4611a33565b5b50919050565b60006119c682611913565b91507fffffffffffffffffffffffffffffffffffffffffffffffffffffffffffffffff8214156119f9576119f8611a04565b5b600182019050919050565b7f4e487b7100000000000000000000000000000000000000000000000000000000600052601160045260246000fd5b7f4e487b7100000000000000000000000000000000000000000000000000000000600052602260045260246000fd5b7f4e487b7100000000000000000000000000000000000000000000000000000000600052604160045260246000fd5b6000601f19601f8301169050919050565b611aab816118a9565b8114611ab657600080fd5b50565b611ac2816118c7565b8114611acd57600080fd5b50565b611ad981611913565b8114611ae457600080fd5b5056fea26469706673582212201278bae79c2f38ea77bf988b89aa1ec416b2deab542a0676bc90157dff181d7064736f6c63430008000033",
  "immutableReferences": {},
  "source": "// SPDX-License-Identifier: MIT\r\npragma solidity ^0.8.0;\r\n\r\nimport './ERC721Connector.sol';\r\n\r\ncontract KryptoBirdz is ERC721Connector {\r\n\r\n    //mng  lu NFT\r\n    string [] public kryptoBirdz;\r\n\r\n    //mapping nhng nft  tn ti hay cha\r\n    mapping (string => bool) public KryptoBirdzExist;\r\n\r\n    function mint(string memory _kryptoBirdz) public {\r\n        //require xem  to hay cha\r\n        require(!KryptoBirdzExist[_kryptoBirdz], \"KryptoBirdz already exist\");\r\n\r\n        //a vo mng va to _kryptoBirdz\r\n\r\n        kryptoBirdz.push(_kryptoBirdz);\r\n        uint _id = kryptoBirdz.length - 1;\r\n\r\n        //gi n hm _mint trong ERC721.sol  to nft\r\n        _mint(msg.sender, _id);\r\n\r\n\r\n        KryptoBirdzExist[_kryptoBirdz] = true;  //set cho ci va to thnh tn ti\r\n    }\r\n\r\n\r\n    constructor() ERC721Connector('KryptoBirdz', 'KBIRDZ') {\r\n         \r\n    }\r\n    \r\n}",
  "sourcePath": "E:\\Desktop\\Do_an_cuoi_khoa\\NFTMarketPlace\\nft-marketplace-local\\src\\contracts\\KryptoBirdz.sol",
  "compiler": {
    "name": "solc",
    "version": "0.8.0+commit.c7dfd78e.Emscripten.clang"
  },
  "schemaVersion": "3.4.7",
  "updatedAt": "2022-07-28T00:50:30.099Z",
  "networkType": "ethereum",
  "devdoc": {
    "kind": "dev",
    "methods": {
      "balanceOf(address)": {
        "details": "NFTs assigned to the zero address are considered invalid, and this  function throws for queries about the zero address.",
        "params": {
          "_owner": "An address for whom to query the balance"
        },
        "returns": {
          "_0": "The number of NFTs owned by `_owner`, possibly zero"
        }
      },
      "ownerOf(uint256)": {
        "details": "NFTs assigned to zero address are considered invalid, and queries  about them do throw.",
        "params": {
          "_tokenId": "The identifier for an NFT"
        },
        "returns": {
          "_0": "The address of the owner of the NFT"
        }
      },
      "supportsInterface(bytes4)": {
        "details": "Interface identification is specified in ERC-165. This function  uses less than 30,000 gas.",
        "params": {
          "interfaceID": "The interface identifier, as specified in ERC-165"
        },
        "returns": {
          "_0": "`true` if the contract implements `interfaceID` and  `interfaceID` is not 0xffffffff, `false` otherwise"
        }
      },
      "totalSupply()": {
        "returns": {
          "_0": "A count of valid NFTs tracked by this contract, where each one of  them has an assigned and queryable owner not equal to the zero address"
        }
      }
    },
    "version": 1
  },
  "userdoc": {
    "kind": "user",
    "methods": {
      "balanceOf(address)": {
        "notice": "Count all NFTs assigned to an owner"
      },
      "ownerOf(uint256)": {
        "notice": "Find the owner of an NFT"
      },
      "supportsInterface(bytes4)": {
        "notice": "Query if a contract implements an interface"
      },
      "totalSupply()": {
        "notice": "Count NFTs tracked by this contract"
      }
    },
    "version": 1
  }
}