{
  "contractName": "KryptoBirdz",
  "abi": [
    {
      "inputs": [],
      "stateMutability": "nonpayable",
      "type": "constructor"
    },
    {
      "anonymous": false,
      "inputs": [
        {
          "indexed": true,
          "internalType": "address",
          "name": "_owner",
          "type": "address"
        },
        {
          "indexed": true,
          "internalType": "address",
          "name": "_approved",
          "type": "address"
        },
        {
          "indexed": true,
          "internalType": "uint256",
          "name": "_tokenId",
          "type": "uint256"
        }
      ],
      "name": "Approval",
      "type": "event"
    },
    {
      "anonymous": false,
      "inputs": [
        {
          "indexed": true,
          "internalType": "address",
          "name": "_from",
          "type": "address"
        },
        {
          "indexed": true,
          "internalType": "address",
          "name": "_to",
          "type": "address"
        },
        {
          "indexed": true,
          "internalType": "uint256",
          "name": "_tokenId",
          "type": "uint256"
        }
      ],
      "name": "Transfer",
      "type": "event"
    },
    {
      "inputs": [
        {
          "internalType": "string",
          "name": "",
          "type": "string"
        }
      ],
      "name": "KryptoBirdzExist",
      "outputs": [
        {
          "internalType": "bool",
          "name": "",
          "type": "bool"
        }
      ],
      "stateMutability": "view",
      "type": "function",
      "constant": true
    },
    {
      "inputs": [
        {
          "internalType": "address",
          "name": "_to",
          "type": "address"
        },
        {
          "internalType": "uint256",
          "name": "tokenId",
          "type": "uint256"
        }
      ],
      "name": "approve",
      "outputs": [],
      "stateMutability": "nonpayable",
      "type": "function"
    },
    {
      "inputs": [
        {
          "internalType": "address",
          "name": "_owner",
          "type": "address"
        }
      ],
      "name": "balanceOf",
      "outputs": [
        {
          "internalType": "uint256",
          "name": "",
          "type": "uint256"
        }
      ],
      "stateMutability": "view",
      "type": "function",
      "constant": true
    },
    {
      "inputs": [
        {
          "internalType": "uint256",
          "name": "",
          "type": "uint256"
        }
      ],
      "name": "kryptoBirdz",
      "outputs": [
        {
          "internalType": "string",
          "name": "",
          "type": "string"
        }
      ],
      "stateMutability": "view",
      "type": "function",
      "constant": true
    },
    {
      "inputs": [],
      "name": "name",
      "outputs": [
        {
          "internalType": "string",
          "name": "",
          "type": "string"
        }
      ],
      "stateMutability": "view",
      "type": "function",
      "constant": true
    },
    {
      "inputs": [
        {
          "internalType": "uint256",
          "name": "_tokenId",
          "type": "uint256"
        }
      ],
      "name": "ownerOf",
      "outputs": [
        {
          "internalType": "address",
          "name": "",
          "type": "address"
        }
      ],
      "stateMutability": "view",
      "type": "function",
      "constant": true
    },
    {
      "inputs": [
        {
          "internalType": "bytes4",
          "name": "interfaceID",
          "type": "bytes4"
        }
      ],
      "name": "supportsInterface",
      "outputs": [
        {
          "internalType": "bool",
          "name": "",
          "type": "bool"
        }
      ],
      "stateMutability": "view",
      "type": "function",
      "constant": true
    },
    {
      "inputs": [],
      "name": "symbol",
      "outputs": [
        {
          "internalType": "string",
          "name": "",
          "type": "string"
        }
      ],
      "stateMutability": "view",
      "type": "function",
      "constant": true
    },
    {
      "inputs": [
        {
          "internalType": "uint256",
          "name": "index",
          "type": "uint256"
        }
      ],
      "name": "tokenByIndex",
      "outputs": [
        {
          "internalType": "uint256",
          "name": "",
          "type": "uint256"
        }
      ],
      "stateMutability": "view",
      "type": "function",
      "constant": true
    },
    {
      "inputs": [
        {
          "internalType": "address",
          "name": "owner",
          "type": "address"
        },
        {
          "internalType": "uint256",
          "name": "index",
          "type": "uint256"
        }
      ],
      "name": "tokenOfOwnerByIndex",
      "outputs": [
        {
          "internalType": "uint256",
          "name": "",
          "type": "uint256"
        }
      ],
      "stateMutability": "view",
      "type": "function",
      "constant": true
    },
    {
      "inputs": [],
      "name": "totalSupply",
      "outputs": [
        {
          "internalType": "uint256",
          "name": "",
          "type": "uint256"
        }
      ],
      "stateMutability": "view",
      "type": "function",
      "constant": true
    },
    {
      "inputs": [
        {
          "internalType": "address",
          "name": "_from",
          "type": "address"
        },
        {
          "internalType": "address",
          "name": "_to",
          "type": "address"
        },
        {
          "internalType": "uint256",
          "name": "_tokenId",
          "type": "uint256"
        }
      ],
      "name": "transferFrom",
      "outputs": [],
      "stateMutability": "nonpayable",
      "type": "function"
    },
    {
      "inputs": [
        {
          "internalType": "string",
          "name": "_kryptoBirdz",
          "type": "string"
        }
      ],
      "name": "mint",
      "outputs": [],
      "stateMutability": "nonpayable",
      "type": "function"
    }
  ],
  "bytecode": "0x60806040523480156200001157600080fd5b506040518060400160405280600b81526020017f4b727970746f426972647a0000000000000000000000000000000000000000008152506040518060400160405280600681526020017f4b424952445a00000000000000000000000000000000000000000000000000008152508181816000908051906020019062000098929190620001c6565b508060019080519060200190620000b1929190620001c6565b505050620000e57f01ffc9a7a5cef8baa21ed3c5c0d7e23accb804b619e9333b597f47a0d84076e2620000ed60201b60201c565b505062000350565b63ffffffff60e01b817bffffffffffffffffffffffffffffffffffffffffffffffffffffffff1916141562000159576040517f08c379a00000000000000000000000000000000000000000000000000000000081526004016200015090620002b8565b60405180910390fd5b600160026000837bffffffffffffffffffffffffffffffffffffffffffffffffffffffff19167bffffffffffffffffffffffffffffffffffffffffffffffffffffffff1916815260200190815260200160002060006101000a81548160ff02191690831515021790555050565b828054620001d490620002eb565b90600052602060002090601f016020900481019282620001f8576000855562000244565b82601f106200021357805160ff191683800117855562000244565b8280016001018555821562000244579182015b828111156200024357825182559160200191906001019062000226565b5b50905062000253919062000257565b5090565b5b808211156200027257600081600090555060010162000258565b5090565b600062000285601983620002da565b91507f496e76616c696420696e746572666163652072657175657374000000000000006000830152602082019050919050565b60006020820190508181036000830152620002d38162000276565b9050919050565b600082825260208201905092915050565b600060028204905060018216806200030457607f821691505b602082108114156200031b576200031a62000321565b5b50919050565b7f4e487b7100000000000000000000000000000000000000000000000000000000600052602260045260246000fd5b611b1e80620003606000396000f3fe608060405234801561001057600080fd5b50600436106100cf5760003560e01c80634f6ccce71161008c578063742977eb11610066578063742977eb1461023857806393ab6e561461026857806395d89b4114610298578063d85d3d27146102b6576100cf565b80634f6ccce7146101a85780636352211e146101d857806370a0823114610208576100cf565b806301ffc9a7146100d457806306fdde0314610104578063095ea7b31461012257806318160ddd1461013e57806323b872dd1461015c5780632f745c5914610178575b600080fd5b6100ee60048036038101906100e99190611242565b6102d2565b6040516100fb9190611676565b60405180910390f35b61010c61033a565b6040516101199190611691565b60405180910390f35b61013c60048036038101906101379190611206565b6103cc565b005b610146610568565b60405161015391906117d3565b60405180910390f35b610176600480360381019061017191906111b7565b610575565b005b610192600480360381019061018d9190611206565b610585565b60405161019f91906117d3565b60405180910390f35b6101c260048036038101906101bd91906112ac565b61065b565b6040516101cf91906117d3565b60405180910390f35b6101f260048036038101906101ed91906112ac565b6106c1565b6040516101ff919061165b565b60405180910390f35b610222600480360381019061021d919061118e565b610773565b60405161022f91906117d3565b60405180910390f35b610252600480360381019061024d919061126b565b61082b565b60405161025f9190611676565b60405180910390f35b610282600480360381019061027d91906112ac565b610861565b60405161028f9190611691565b60405180910390f35b6102a061090d565b6040516102ad9190611691565b60405180910390f35b6102d060048036038101906102cb919061126b565b61099f565b005b600060026000837bffffffffffffffffffffffffffffffffffffffffffffffffffffffff19167bffffffffffffffffffffffffffffffffffffffffffffffffffffffff1916815260200190815260200160002060009054906101000a900460ff169050919050565b6060600080546103499061198a565b80601f01602080910402602001604051908101604052809291908181526020018280546103759061198a565b80156103c25780601f10610397576101008083540402835291602001916103c2565b820191906000526020600020905b8154815290600101906020018083116103a557829003601f168201915b5050505050905090565b60006103d7826106c1565b90508073ffffffffffffffffffffffffffffffffffffffff168373ffffffffffffffffffffffffffffffffffffffff161415610448576040517f08c379a000000000000000000000000000000000000000000000000000000000815260040161043f906116b3565b60405180910390fd5b8073ffffffffffffffffffffffffffffffffffffffff163373ffffffffffffffffffffffffffffffffffffffff16146104b6576040517f08c379a00000000000000000000000000000000000000000000000000000000081526004016104ad906116d3565b60405180910390fd5b826005600084815260200190815260200160002060006101000a81548173ffffffffffffffffffffffffffffffffffffffff021916908373ffffffffffffffffffffffffffffffffffffffff160217905550818373ffffffffffffffffffffffffffffffffffffffff168273ffffffffffffffffffffffffffffffffffffffff167f8c5be1e5ebec7d5bd14f71427d1e84f3dd0314c0f7b2291e5b200ac8c7c3b92560405160405180910390a4505050565b6000600680549050905090565b610580838383610aa2565b505050565b600061059083610773565b82106105d1576040517f08c379a00000000000000000000000000000000000000000000000000000000081526004016105c890611733565b60405180910390fd5b600860008473ffffffffffffffffffffffffffffffffffffffff1673ffffffffffffffffffffffffffffffffffffffff1681526020019081526020016000208281548110610648577f4e487b7100000000000000000000000000000000000000000000000000000000600052603260045260246000fd5b9060005260206000200154905092915050565b6000610665610568565b82106106a6576040517f08c379a000000000000000000000000000000000000000000000000000000000815260040161069d90611733565b60405180910390fd5b60076000838152602001908152602001600020549050919050565b6000806003600084815260200190815260200160002060009054906101000a900473ffffffffffffffffffffffffffffffffffffffff169050600073ffffffffffffffffffffffffffffffffffffffff168173ffffffffffffffffffffffffffffffffffffffff16141561076a576040517f08c379a0000000000000000000000000000000000000000000000000000000008152600401610761906117b3565b60405180910390fd5b80915050919050565b60008073ffffffffffffffffffffffffffffffffffffffff168273ffffffffffffffffffffffffffffffffffffffff1614156107e4576040517f08c379a00000000000000000000000000000000000000000000000000000000081526004016107db906117b3565b60405180910390fd5b600460008373ffffffffffffffffffffffffffffffffffffffff1673ffffffffffffffffffffffffffffffffffffffff168152602001908152602001600020549050919050565b600b818051602081018201805184825260208301602085012081835280955050505050506000915054906101000a900460ff1681565b600a818154811061087157600080fd5b90600052602060002001600091509050805461088c9061198a565b80601f01602080910402602001604051908101604052809291908181526020018280546108b89061198a565b80156109055780601f106108da57610100808354040283529160200191610905565b820191906000526020600020905b8154815290600101906020018083116108e857829003601f168201915b505050505081565b60606001805461091c9061198a565b80601f01602080910402602001604051908101604052809291908181526020018280546109489061198a565b80156109955780601f1061096a57610100808354040283529160200191610995565b820191906000526020600020905b81548152906001019060200180831161097857829003601f168201915b5050505050905090565b600b816040516109af9190611644565b908152602001604051809103902060009054906101000a900460ff1615610a0b576040517f08c379a0000000000000000000000000000000000000000000000000000000008152600401610a0290611753565b60405180910390fd5b600a81908060018154018082558091505060019003906000526020600020016000909190919091509080519060200190610a46929190611044565b5060006001600a80549050610a5b9190611876565b9050610a673382610ce4565b6001600b83604051610a799190611644565b908152602001604051809103902060006101000a81548160ff0219169083151502179055505050565b600073ffffffffffffffffffffffffffffffffffffffff168273ffffffffffffffffffffffffffffffffffffffff161415610b12576040517f08c379a0000000000000000000000000000000000000000000000000000000008152600401610b09906116f3565b60405180910390fd5b8273ffffffffffffffffffffffffffffffffffffffff16610b32826106c1565b73ffffffffffffffffffffffffffffffffffffffff1614610b88576040517f08c379a0000000000000000000000000000000000000000000000000000000008152600401610b7f90611773565b60405180910390fd5b600460008473ffffffffffffffffffffffffffffffffffffffff1673ffffffffffffffffffffffffffffffffffffffff1681526020019081526020016000206000815480929190610bd890611960565b9190505550600460008373ffffffffffffffffffffffffffffffffffffffff1673ffffffffffffffffffffffffffffffffffffffff1681526020019081526020016000206000815480929190610c2d906119bc565b9190505550816003600083815260200190815260200160002060006101000a81548173ffffffffffffffffffffffffffffffffffffffff021916908373ffffffffffffffffffffffffffffffffffffffff160217905550808273ffffffffffffffffffffffffffffffffffffffff168473ffffffffffffffffffffffffffffffffffffffff167fddf252ad1be2c89b69c2b068fc378daa952ba7f163c4a11628f55a4df523b3ef60405160405180910390a4505050565b610cee8282610d05565b610cf781610ec5565b610d018282610f0e565b5050565b600073ffffffffffffffffffffffffffffffffffffffff168273ffffffffffffffffffffffffffffffffffffffff161415610d75576040517f08c379a0000000000000000000000000000000000000000000000000000000008152600401610d6c90611793565b60405180910390fd5b610d7e81610fd2565b15610dbe576040517f08c379a0000000000000000000000000000000000000000000000000000000008152600401610db590611713565b60405180910390fd5b816003600083815260200190815260200160002060006101000a81548173ffffffffffffffffffffffffffffffffffffffff021916908373ffffffffffffffffffffffffffffffffffffffff160217905550600460008373ffffffffffffffffffffffffffffffffffffffff1673ffffffffffffffffffffffffffffffffffffffff1681526020019081526020016000206000815480929190610e60906119bc565b9190505550808273ffffffffffffffffffffffffffffffffffffffff16600073ffffffffffffffffffffffffffffffffffffffff167fddf252ad1be2c89b69c2b068fc378daa952ba7f163c4a11628f55a4df523b3ef60405160405180910390a45050565b6006805490506007600083815260200190815260200160002081905550600681908060018154018082558091505060019003906000526020600020016000909190919091505550565b600860008373ffffffffffffffffffffffffffffffffffffffff1673ffffffffffffffffffffffffffffffffffffffff168152602001908152602001600020805490506009600083815260200190815260200160002081905550600860008373ffffffffffffffffffffffffffffffffffffffff1673ffffffffffffffffffffffffffffffffffffffff1681526020019081526020016000208190806001815401808255809150506001900390600052602060002001600090919091909150555050565b6000806003600084815260200190815260200160002060009054906101000a900473ffffffffffffffffffffffffffffffffffffffff169050600073ffffffffffffffffffffffffffffffffffffffff168173ffffffffffffffffffffffffffffffffffffffff161415915050919050565b8280546110509061198a565b90600052602060002090601f01602090048101928261107257600085556110b9565b82601f1061108b57805160ff19168380011785556110b9565b828001600101855582156110b9579182015b828111156110b857825182559160200191906001019061109d565b5b5090506110c691906110ca565b5090565b5b808211156110e35760008160009055506001016110cb565b5090565b60006110fa6110f58461181f565b6117ee565b90508281526020810184848401111561111257600080fd5b61111d84828561191e565b509392505050565b60008135905061113481611aa3565b92915050565b60008135905061114981611aba565b92915050565b600082601f83011261116057600080fd5b81356111708482602086016110e7565b91505092915050565b60008135905061118881611ad1565b92915050565b6000602082840312156111a057600080fd5b60006111ae84828501611125565b91505092915050565b6000806000606084860312156111cc57600080fd5b60006111da86828701611125565b93505060206111eb86828701611125565b92505060406111fc86828701611179565b9150509250925092565b6000806040838503121561121957600080fd5b600061122785828601611125565b925050602061123885828601611179565b9150509250929050565b60006020828403121561125457600080fd5b60006112628482850161113a565b91505092915050565b60006020828403121561127d57600080fd5b600082013567ffffffffffffffff81111561129757600080fd5b6112a38482850161114f565b91505092915050565b6000602082840312156112be57600080fd5b60006112cc84828501611179565b91505092915050565b6112de816118aa565b82525050565b6112ed816118bc565b82525050565b60006112fe8261184f565b611308818561185a565b935061131881856020860161192d565b61132181611a92565b840191505092915050565b60006113378261184f565b611341818561186b565b935061135181856020860161192d565b80840191505092915050565b600061136a60218361185a565b91507f4572726f72202d20617070726f76616c20746f2063757272656e74206f776e6560008301527f72000000000000000000000000000000000000000000000000000000000000006020830152604082019050919050565b60006113d0601f8361185a565b91507f437572656e742063616c6c6572206973206e6f7420746865206f776e657220006000830152602082019050919050565b6000611410602b8361185a565b91507f4572726f72203d20455243373231205472616e7366657220746f20746865207a60008301527f65726f20616464726573730000000000000000000000000000000000000000006020830152604082019050919050565b6000611476601b8361185a565b91507f5468697320746f6b656e20697320616c726561647920657869737400000000006000830152602082019050919050565b60006114b6600d8361185a565b91507f6f7574206f6620626f756e6473000000000000000000000000000000000000006000830152602082019050919050565b60006114f660198361185a565b91507f4b727970746f426972647a20616c7265616479206578697374000000000000006000830152602082019050919050565b600061153660308361185a565b91507f547279696e6720746f2074726173666572206120746f6b656e2074686520736160008301527f6d6520746f6b656e2061646472657373000000000000000000000000000000006020830152604082019050919050565b600061159c60238361185a565b91507f4552433732313a206d696e74696e6720746f20746865206e756c6c206164647260008301527f65737300000000000000000000000000000000000000000000000000000000006020830152604082019050919050565b600061160260128361185a565b91507f4f776e6572206973206e6f7420657869737400000000000000000000000000006000830152602082019050919050565b61163e81611914565b82525050565b6000611650828461132c565b915081905092915050565b600060208201905061167060008301846112d5565b92915050565b600060208201905061168b60008301846112e4565b92915050565b600060208201905081810360008301526116ab81846112f3565b905092915050565b600060208201905081810360008301526116cc8161135d565b9050919050565b600060208201905081810360008301526116ec816113c3565b9050919050565b6000602082019050818103600083015261170c81611403565b9050919050565b6000602082019050818103600083015261172c81611469565b9050919050565b6000602082019050818103600083015261174c816114a9565b9050919050565b6000602082019050818103600083015261176c816114e9565b9050919050565b6000602082019050818103600083015261178c81611529565b9050919050565b600060208201905081810360008301526117ac8161158f565b9050919050565b600060208201905081810360008301526117cc816115f5565b9050919050565b60006020820190506117e86000830184611635565b92915050565b6000604051905081810181811067ffffffffffffffff8211171561181557611814611a63565b5b8060405250919050565b600067ffffffffffffffff82111561183a57611839611a63565b5b601f19601f8301169050602081019050919050565b600081519050919050565b600082825260208201905092915050565b600081905092915050565b600061188182611914565b915061188c83611914565b92508282101561189f5761189e611a05565b5b828203905092915050565b60006118b5826118f4565b9050919050565b60008115159050919050565b60007fffffffff0000000000000000000000000000000000000000000000000000000082169050919050565b600073ffffffffffffffffffffffffffffffffffffffff82169050919050565b6000819050919050565b82818337600083830152505050565b60005b8381101561194b578082015181840152602081019050611930565b8381111561195a576000848401525b50505050565b600061196b82611914565b9150600082141561197f5761197e611a05565b5b600182039050919050565b600060028204905060018216806119a257607f821691505b602082108114156119b6576119b5611a34565b5b50919050565b60006119c782611914565b91507fffffffffffffffffffffffffffffffffffffffffffffffffffffffffffffffff8214156119fa576119f9611a05565b5b600182019050919050565b7f4e487b7100000000000000000000000000000000000000000000000000000000600052601160045260246000fd5b7f4e487b7100000000000000000000000000000000000000000000000000000000600052602260045260246000fd5b7f4e487b7100000000000000000000000000000000000000000000000000000000600052604160045260246000fd5b6000601f19601f8301169050919050565b611aac816118aa565b8114611ab757600080fd5b50565b611ac3816118c8565b8114611ace57600080fd5b50565b611ada81611914565b8114611ae557600080fd5b5056fea2646970667358221220c6c5f9fb198e45c509cbf8679c1afcdb148c6f525b58d5f2b0b7bc6bb03f446a64736f6c63430008000033",
  "immutableReferences": {},
  "source": "// SPDX-License-Identifier: MIT\r\npragma solidity ^0.8.0;\r\n\r\nimport './ERC721Connector.sol';\r\n\r\ncontract KryptoBirdz is ERC721Connector {\r\n\r\n    //mng  lu NFT\r\n    string [] public kryptoBirdz;\r\n\r\n    //mapping nhng nft  tn ti hay cha\r\n    mapping (string => bool) public KryptoBirdzExist;\r\n\r\n    function mint(string memory _kryptoBirdz) public {\r\n        //require xem  to hay cha\r\n        require(!KryptoBirdzExist[_kryptoBirdz], \"KryptoBirdz already exist\");\r\n\r\n        //a vo mng va to _kryptoBirdz\r\n\r\n        kryptoBirdz.push(_kryptoBirdz);\r\n        uint _id = kryptoBirdz.length - 1;\r\n\r\n        //gi n hm _mint trong ERC721.sol  to nft\r\n        _mint(msg.sender, _id);\r\n\r\n\r\n        KryptoBirdzExist[_kryptoBirdz] = true;  //set cho ci va to thnh tn ti\r\n    }\r\n\r\n\r\n    constructor() ERC721Connector('KryptoBirdz', 'KBIRDZ') {\r\n         \r\n    }\r\n    \r\n}",
  "sourcePath": "E:\\Desktop\\Do_an_cuoi_khoa\\NFTMarketPlace\\nft-marketplace-local\\src\\contracts\\KryptoBirdz.sol",
  "compiler": {
    "name": "solc",
    "version": "0.8.0+commit.c7dfd78e.Emscripten.clang"
  },
  "schemaVersion": "3.4.7",
  "updatedAt": "2022-07-26T02:47:13.343Z",
  "networkType": "ethereum",
  "devdoc": {
    "kind": "dev",
    "methods": {
      "balanceOf(address)": {
        "details": "NFTs assigned to the zero address are considered invalid, and this  function throws for queries about the zero address.",
        "params": {
          "_owner": "An address for whom to query the balance"
        },
        "returns": {
          "_0": "The number of NFTs owned by `_owner`, possibly zero"
        }
      },
      "ownerOf(uint256)": {
        "details": "NFTs assigned to zero address are considered invalid, and queries  about them do throw.",
        "params": {
          "_tokenId": "The identifier for an NFT"
        },
        "returns": {
          "_0": "The address of the owner of the NFT"
        }
      },
      "supportsInterface(bytes4)": {
        "details": "Interface identification is specified in ERC-165. This function  uses less than 30,000 gas.",
        "params": {
          "interfaceID": "The interface identifier, as specified in ERC-165"
        },
        "returns": {
          "_0": "`true` if the contract implements `interfaceID` and  `interfaceID` is not 0xffffffff, `false` otherwise"
        }
      },
      "totalSupply()": {
        "returns": {
          "_0": "A count of valid NFTs tracked by this contract, where each one of  them has an assigned and queryable owner not equal to the zero address"
        }
      }
    },
    "version": 1
  },
  "userdoc": {
    "kind": "user",
    "methods": {
      "balanceOf(address)": {
        "notice": "Count all NFTs assigned to an owner"
      },
      "ownerOf(uint256)": {
        "notice": "Find the owner of an NFT"
      },
      "supportsInterface(bytes4)": {
        "notice": "Query if a contract implements an interface"
      },
      "totalSupply()": {
        "notice": "Count NFTs tracked by this contract"
      }
    },
    "version": 1
  }
}