{
  "contractName": "KryptoBirdz",
  "abi": [
    {
      "inputs": [],
      "stateMutability": "nonpayable",
      "type": "constructor"
    },
    {
      "anonymous": false,
      "inputs": [
        {
          "indexed": true,
          "internalType": "address",
          "name": "from",
          "type": "address"
        },
        {
          "indexed": true,
          "internalType": "address",
          "name": "to",
          "type": "address"
        },
        {
          "indexed": true,
          "internalType": "uint256",
          "name": "tokenId",
          "type": "uint256"
        }
      ],
      "name": "Transfer",
      "type": "event"
    },
    {
      "inputs": [
        {
          "internalType": "string",
          "name": "",
          "type": "string"
        }
      ],
      "name": "KryptoBirdzExist",
      "outputs": [
        {
          "internalType": "bool",
          "name": "",
          "type": "bool"
        }
      ],
      "stateMutability": "view",
      "type": "function",
      "constant": true
    },
    {
      "inputs": [
        {
          "internalType": "address",
          "name": "_owner",
          "type": "address"
        }
      ],
      "name": "balanceOf",
      "outputs": [
        {
          "internalType": "uint256",
          "name": "",
          "type": "uint256"
        }
      ],
      "stateMutability": "view",
      "type": "function",
      "constant": true
    },
    {
      "inputs": [
        {
          "internalType": "uint256",
          "name": "",
          "type": "uint256"
        }
      ],
      "name": "kryptoBirdz",
      "outputs": [
        {
          "internalType": "string",
          "name": "",
          "type": "string"
        }
      ],
      "stateMutability": "view",
      "type": "function",
      "constant": true
    },
    {
      "inputs": [],
      "name": "name",
      "outputs": [
        {
          "internalType": "string",
          "name": "",
          "type": "string"
        }
      ],
      "stateMutability": "view",
      "type": "function",
      "constant": true
    },
    {
      "inputs": [
        {
          "internalType": "uint256",
          "name": "_tokenId",
          "type": "uint256"
        }
      ],
      "name": "ownerOf",
      "outputs": [
        {
          "internalType": "address",
          "name": "",
          "type": "address"
        }
      ],
      "stateMutability": "view",
      "type": "function",
      "constant": true
    },
    {
      "inputs": [],
      "name": "symbol",
      "outputs": [
        {
          "internalType": "string",
          "name": "",
          "type": "string"
        }
      ],
      "stateMutability": "view",
      "type": "function",
      "constant": true
    },
    {
      "inputs": [],
      "name": "totalSupply",
      "outputs": [
        {
          "internalType": "uint256",
          "name": "",
          "type": "uint256"
        }
      ],
      "stateMutability": "view",
      "type": "function",
      "constant": true
    },
    {
      "inputs": [
        {
          "internalType": "string",
          "name": "_kryptoBirdz",
          "type": "string"
        }
      ],
      "name": "mint",
      "outputs": [],
      "stateMutability": "nonpayable",
      "type": "function"
    }
  ],
  "bytecode": "0x60806040523480156200001157600080fd5b506040518060400160405280600b81526020017f4b727970746f426972647a0000000000000000000000000000000000000000008152506040518060400160405280600681526020017f4b424952445a00000000000000000000000000000000000000000000000000008152508181816000908051906020019062000098929190620000bc565b508060019080519060200190620000b1929190620000bc565b5050505050620001d1565b828054620000ca906200016c565b90600052602060002090601f016020900481019282620000ee57600085556200013a565b82601f106200010957805160ff19168380011785556200013a565b828001600101855582156200013a579182015b82811115620001395782518255916020019190600101906200011c565b5b5090506200014991906200014d565b5090565b5b80821115620001685760008160009055506001016200014e565b5090565b600060028204905060018216806200018557607f821691505b602082108114156200019c576200019b620001a2565b5b50919050565b7f4e487b7100000000000000000000000000000000000000000000000000000000600052602260045260246000fd5b61100a80620001e16000396000f3fe608060405234801561001057600080fd5b50600436106100885760003560e01c8063742977eb1161005b578063742977eb1461012957806393ab6e561461015957806395d89b4114610189578063d85d3d27146101a757610088565b806306fdde031461008d57806318160ddd146100ab5780636352211e146100c957806370a08231146100f9575b600080fd5b6100956101c3565b6040516100a29190610c8a565b60405180910390f35b6100b3610255565b6040516100c09190610d2c565b60405180910390f35b6100e360048036038101906100de9190610a57565b610262565b6040516100f09190610c54565b60405180910390f35b610113600480360381019061010e91906109ed565b610314565b6040516101209190610d2c565b60405180910390f35b610143600480360381019061013e9190610a16565b6103cc565b6040516101509190610c6f565b60405180910390f35b610173600480360381019061016e9190610a57565b610402565b6040516101809190610c8a565b60405180910390f35b6101916104ae565b60405161019e9190610c8a565b60405180910390f35b6101c160048036038101906101bc9190610a16565b610540565b005b6060600080546101d290610e8d565b80601f01602080910402602001604051908101604052809291908181526020018280546101fe90610e8d565b801561024b5780601f106102205761010080835404028352916020019161024b565b820191906000526020600020905b81548152906001019060200180831161022e57829003601f168201915b5050505050905090565b6000600480549050905090565b6000806002600084815260200190815260200160002060009054906101000a900473ffffffffffffffffffffffffffffffffffffffff169050600073ffffffffffffffffffffffffffffffffffffffff168173ffffffffffffffffffffffffffffffffffffffff16141561030b576040517f08c379a000000000000000000000000000000000000000000000000000000000815260040161030290610d0c565b60405180910390fd5b80915050919050565b60008073ffffffffffffffffffffffffffffffffffffffff168273ffffffffffffffffffffffffffffffffffffffff161415610385576040517f08c379a000000000000000000000000000000000000000000000000000000000815260040161037c90610d0c565b60405180910390fd5b600360008373ffffffffffffffffffffffffffffffffffffffff1673ffffffffffffffffffffffffffffffffffffffff168152602001908152602001600020549050919050565b6009818051602081018201805184825260208301602085012081835280955050505050506000915054906101000a900460ff1681565b6008818154811061041257600080fd5b90600052602060002001600091509050805461042d90610e8d565b80601f016020809104026020016040519081016040528092919081815260200182805461045990610e8d565b80156104a65780601f1061047b576101008083540402835291602001916104a6565b820191906000526020600020905b81548152906001019060200180831161048957829003601f168201915b505050505081565b6060600180546104bd90610e8d565b80601f01602080910402602001604051908101604052809291908181526020018280546104e990610e8d565b80156105365780601f1061050b57610100808354040283529160200191610536565b820191906000526020600020905b81548152906001019060200180831161051957829003601f168201915b5050505050905090565b6009816040516105509190610c3d565b908152602001604051809103902060009054906101000a900460ff16156105ac576040517f08c379a00000000000000000000000000000000000000000000000000000000081526004016105a390610ccc565b60405180910390fd5b6008819080600181540180825580915050600190039060005260206000200160009091909190915090805190602001906105e79291906108b8565b50600060016008805490506105fc9190610dcf565b90506106083382610643565b600160098360405161061a9190610c3d565b908152602001604051809103902060006101000a81548160ff0219169083151502179055505050565b61064d828261065a565b6106568161081a565b5050565b600073ffffffffffffffffffffffffffffffffffffffff168273ffffffffffffffffffffffffffffffffffffffff1614156106ca576040517f08c379a00000000000000000000000000000000000000000000000000000000081526004016106c190610cec565b60405180910390fd5b6106d381610846565b15610713576040517f08c379a000000000000000000000000000000000000000000000000000000000815260040161070a90610cac565b60405180910390fd5b816002600083815260200190815260200160002060006101000a81548173ffffffffffffffffffffffffffffffffffffffff021916908373ffffffffffffffffffffffffffffffffffffffff160217905550600360008373ffffffffffffffffffffffffffffffffffffffff1673ffffffffffffffffffffffffffffffffffffffff16815260200190815260200160002060008154809291906107b590610ebf565b9190505550808273ffffffffffffffffffffffffffffffffffffffff16600073ffffffffffffffffffffffffffffffffffffffff167fddf252ad1be2c89b69c2b068fc378daa952ba7f163c4a11628f55a4df523b3ef60405160405180910390a45050565b600481908060018154018082558091505060019003906000526020600020016000909190919091505550565b6000806002600084815260200190815260200160002060009054906101000a900473ffffffffffffffffffffffffffffffffffffffff169050600073ffffffffffffffffffffffffffffffffffffffff168173ffffffffffffffffffffffffffffffffffffffff161415915050919050565b8280546108c490610e8d565b90600052602060002090601f0160209004810192826108e6576000855561092d565b82601f106108ff57805160ff191683800117855561092d565b8280016001018555821561092d579182015b8281111561092c578251825591602001919060010190610911565b5b50905061093a919061093e565b5090565b5b8082111561095757600081600090555060010161093f565b5090565b600061096e61096984610d78565b610d47565b90508281526020810184848401111561098657600080fd5b610991848285610e4b565b509392505050565b6000813590506109a881610fa6565b92915050565b600082601f8301126109bf57600080fd5b81356109cf84826020860161095b565b91505092915050565b6000813590506109e781610fbd565b92915050565b6000602082840312156109ff57600080fd5b6000610a0d84828501610999565b91505092915050565b600060208284031215610a2857600080fd5b600082013567ffffffffffffffff811115610a4257600080fd5b610a4e848285016109ae565b91505092915050565b600060208284031215610a6957600080fd5b6000610a77848285016109d8565b91505092915050565b610a8981610e03565b82525050565b610a9881610e15565b82525050565b6000610aa982610da8565b610ab38185610db3565b9350610ac3818560208601610e5a565b610acc81610f95565b840191505092915050565b6000610ae282610da8565b610aec8185610dc4565b9350610afc818560208601610e5a565b80840191505092915050565b6000610b15601b83610db3565b91507f5468697320746f6b656e20697320616c726561647920657869737400000000006000830152602082019050919050565b6000610b55601983610db3565b91507f4b727970746f426972647a20616c7265616479206578697374000000000000006000830152602082019050919050565b6000610b95602383610db3565b91507f4552433732313a206d696e74696e6720746f20746865206e756c6c206164647260008301527f65737300000000000000000000000000000000000000000000000000000000006020830152604082019050919050565b6000610bfb601283610db3565b91507f4f776e6572206973206e6f7420657869737400000000000000000000000000006000830152602082019050919050565b610c3781610e41565b82525050565b6000610c498284610ad7565b915081905092915050565b6000602082019050610c696000830184610a80565b92915050565b6000602082019050610c846000830184610a8f565b92915050565b60006020820190508181036000830152610ca48184610a9e565b905092915050565b60006020820190508181036000830152610cc581610b08565b9050919050565b60006020820190508181036000830152610ce581610b48565b9050919050565b60006020820190508181036000830152610d0581610b88565b9050919050565b60006020820190508181036000830152610d2581610bee565b9050919050565b6000602082019050610d416000830184610c2e565b92915050565b6000604051905081810181811067ffffffffffffffff82111715610d6e57610d6d610f66565b5b8060405250919050565b600067ffffffffffffffff821115610d9357610d92610f66565b5b601f19601f8301169050602081019050919050565b600081519050919050565b600082825260208201905092915050565b600081905092915050565b6000610dda82610e41565b9150610de583610e41565b925082821015610df857610df7610f08565b5b828203905092915050565b6000610e0e82610e21565b9050919050565b60008115159050919050565b600073ffffffffffffffffffffffffffffffffffffffff82169050919050565b6000819050919050565b82818337600083830152505050565b60005b83811015610e78578082015181840152602081019050610e5d565b83811115610e87576000848401525b50505050565b60006002820490506001821680610ea557607f821691505b60208210811415610eb957610eb8610f37565b5b50919050565b6000610eca82610e41565b91507fffffffffffffffffffffffffffffffffffffffffffffffffffffffffffffffff821415610efd57610efc610f08565b5b600182019050919050565b7f4e487b7100000000000000000000000000000000000000000000000000000000600052601160045260246000fd5b7f4e487b7100000000000000000000000000000000000000000000000000000000600052602260045260246000fd5b7f4e487b7100000000000000000000000000000000000000000000000000000000600052604160045260246000fd5b6000601f19601f8301169050919050565b610faf81610e03565b8114610fba57600080fd5b50565b610fc681610e41565b8114610fd157600080fd5b5056fea2646970667358221220a20edef2e9b614d0c4543be1d1838a1922a32299850a12a6ede9b1f4d8b67ad064736f6c63430008000033",
  "immutableReferences": {},
  "source": "// SPDX-License-Identifier: MIT\r\npragma solidity ^0.8.0;\r\n\r\nimport './ERC721Connector.sol';\r\n\r\ncontract KryptoBirdz is ERC721Connector {\r\n\r\n    //mng  lu NFT\r\n    string [] public kryptoBirdz;\r\n\r\n    //mapping nhng nft  tn ti hay cha\r\n    mapping (string => bool) public KryptoBirdzExist;\r\n\r\n    function mint(string memory _kryptoBirdz) public {\r\n        //require xem  to hay cha\r\n        require(!KryptoBirdzExist[_kryptoBirdz], \"KryptoBirdz already exist\");\r\n\r\n        //a vo mng va to _kryptoBirdz\r\n\r\n        kryptoBirdz.push(_kryptoBirdz);\r\n        uint _id = kryptoBirdz.length - 1;\r\n\r\n        //gi n hm _mint trong ERC721.sol  to nft\r\n        _mint(msg.sender, _id);\r\n\r\n\r\n        KryptoBirdzExist[_kryptoBirdz] = true;  //set cho ci va to thnh tn ti\r\n    }\r\n\r\n\r\n    constructor() ERC721Connector('KryptoBirdz', 'KBIRDZ') {\r\n         \r\n    }\r\n    \r\n}",
  "sourcePath": "E:\\Desktop\\Do_an_cuoi_khoa\\nft-marketplace-local\\src\\contracts\\KryptoBirdz.sol",
  "compiler": {
    "name": "solc",
    "version": "0.8.0+commit.c7dfd78e.Emscripten.clang"
  },
  "schemaVersion": "3.4.7",
  "updatedAt": "2022-06-20T06:46:16.262Z",
  "networkType": "ethereum",
  "devdoc": {
    "kind": "dev",
    "methods": {
      "balanceOf(address)": {
        "details": "NFTs assigned to the zero address are considered invalid, and this  function throws for queries about the zero address.",
        "params": {
          "_owner": "An address for whom to query the balance"
        },
        "returns": {
          "_0": "The number of NFTs owned by `_owner`, possibly zero"
        }
      },
      "ownerOf(uint256)": {
        "details": "NFTs assigned to zero address are considered invalid, and queries  about them do throw.",
        "params": {
          "_tokenId": "The identifier for an NFT"
        },
        "returns": {
          "_0": "The address of the owner of the NFT"
        }
      },
      "totalSupply()": {
        "returns": {
          "_0": "A count of valid NFTs tracked by this contract, where each one of  them has an assigned and queryable owner not equal to the zero address"
        }
      }
    },
    "version": 1
  },
  "userdoc": {
    "kind": "user",
    "methods": {
      "balanceOf(address)": {
        "notice": "Count all NFTs assigned to an owner"
      },
      "ownerOf(uint256)": {
        "notice": "Find the owner of an NFT"
      },
      "totalSupply()": {
        "notice": "Count NFTs tracked by this contract"
      }
    },
    "version": 1
  }
}